:100000000C9438000C9442000C9442000C94420072
:100010000C9442000C9442000C9442000C94420058
:100020000C9442000C9442000C9442000C94420048
:100030000C9442000C9442000C9442000C94420038
:100040000C9442000C9442000C9442000C94420028
:100050000C9442000C9442000C9442000C94420018
:100060000C9442000C9442000C9442000C94420008
:1000700011241FBECFEFD4E0DEBFCDBF0E944400ED
:100080000C9468000C9400000E945800D09AC1E0C3
:100090008FE60E9460002FEF8FE797E021508040AD
:1000A0009040E1F700C000008BB38C278BBBF0CFF2
:1000B00010BC8FE189B988E18AB98EE880BD0895C6
:1000C0005D9BFECF8CB908955F9BFECF8CB10895E8
:0400D000F894FFCFD2
:00000001FF
